:020000040000fa
:080000000002040000000000f2
:020000040000fa
:100008004c030000520300006e0300005803000078
:100018005e03000064030000720300006a0300002e
:100028006a0300006a0300006a030000d2020000ad
:100038006a0300006a0300006a0300006a03000004
:100048006a0300006a030000020300006a0300005c
:100058006a0300006a0300006a0300006a030000e4
:100068006a0300006a0300006a0300006a030000d4
:100078006a0300006a0300006a0300006a030000c4
:100088006a0300006a0300006a0300006a030000b4
:020000040000fa
:100400006f0121000eff2c000e018800000000008b
:10041000000020000000e000020032000001200087
:10042000200288000c000700604920000100200025
:100430000f000700000020000000e0000200320072
:100440000000020000000000720402000000000032
:100450000040da000000fe00200020000000e00064
:100460000200320010002000900188000000060009
:10047000a1028800800078000000eb001a0037001d
:10048000e280400054a0b4009101ba00e280400034
:1004900054a0b4009102ba00e280400054a0b4001d
:1004a0000002eb00472bde00f507b200a601880032
:1004b000602ce10008003a000049eb000201e8006e
:1004c000020039003420ec0002f0a0008301e900b2
:1004d000f9ff3e00040037006128e100010032000e
:1004e0000082eb00040007001101ba000200e000e6
:1004f000e3ff3a000000060004d0a300e20f490029
:100500001c003900810278003549ba000201e80078
:10051000020039003420ec0002f0a0008301e90061
:100520000f0032002549ba000201e800020039003c
:100530003420ec0002f0a0008301e9000800320042
:100540000400e0000600320015c9ba000201e8000c
:10055000020039003420ec0002f0a0008301e90021
:100560008180e80054a0b4000300e000e2ff3a00fc
:10057000000006009102ba00055978008301e900e5
:10058000f7ff3200c82ade00055978008301e90030
:10059000f3ff32000400e000f1ff320011d9ba008d
:1005a000eeff3700849fbe00861f78000000fa002f
:1005b0000068a900147080006102620004f0a700c6
:1005c0000402ea000402e9004f22de00044278003f
:1005d0000482fb006102620016708000e5ff2f00bc
:1005e0008502630005027200147088000002eb00af
:1005f000040888000080fa004f0378004f02be0014
:10060000004006003600f800809fbe00849fbe00b8
:10061000861f78000200fa000148a90040128000fd
:10062000000f780044012100144278000482fb008e
:100630008402420004002100048242001e0a780065
:1006400044012100144278000482fb008402e80087
:10065000a4002000110009008402d80001027800e3
:10066000044278000443780045012100864a78005e
:1006700014c0b30084407800500121000148780084
:100680000080fa004f0378004f02be004f00be000a
:100690003600f900004006000000fa00c028a9005a
:1006a000ffff37000000fa00c068a900ffff370015
:1006b0000000fa00c048a900ffff37000000fa0060
:1006c000c088a900ffff37000000fa00c0a8a900f9
:1006d000ffff37000000fa00ffff37000000fa00bc
:0c06e000ffff37000000fa00ffff3700aa
:020000040000fa
:1006ec000000fa00c3e8a9001d0007000500070080
:1006fc002a000700c1e8a900c3e8a9000080fa009d
:10070c00000006000000fa000002eb00040888005c
:10071c0005e1a90005a1a900240880000440a1005e
:10072c000450a0002408880004c1a9000441a900b9
:10073c000421a9000442800004c0a10004d0a00040
:10074c0004e0a100044288000068a9002268a80007
:10075c002068a80005e1a9000080fa00000006004e
:10076c000000fa000002eb00747088000002eb003d
:10077c00f4708800c4ff2f00047088000082eb0026
:10078c008470880010cea90010eea900110ea900eb
:10079c00112ea9000080fa00000006000000fa00eb
:1007ac0041e2a90061e2a9000148a9002148a90081
:1007bc00244280000480a0000490a10004a0a000aa
:1007cc00244288004382a9004362a9004342a90045
:1007dc0042e2a90042c2a90042a2a8001412800061
:1007ec000420a0000430a0000440a00014128800d3
:1007fc00141280000400a0000410a0001412880041
:10080c000002eb002412880041a2a900041280000f
:10081c000480a1000490a10004a0a100041288008f
:10082c0040e2a90040c2a90040a2a9000412800025
:10083c000420a0000430a0000440a0000412880092
:10084c000002eb00041288004322a9004302a90015
:10085c0042e2a90040c2a90041e2a8000080fa00cf
:10086c00000006000200fa00004f780014708000af
:10087c006102620004f0a7000402ea000402e9002d
:10088c004f22de00044278000482fb006102620009
:10089c0016708000e5ff2f008502630005027200d0
:1008ac00147088009e4278000582fb004412880078
:1008bc00000000000412800062026200e00f52008f
:1008cc00fcff32004413800004427800044078009e
:1008dc000080fa00000006000000fa000700070084
:1008ec007fff07000002eb0014708800022ea800a6
:1008fc0010c6b300dbff0700fdff37000000fa0055
:10090c0040a7a900243a80000480a0000490a00015
:10091c0004a0a000243a88000080fa000000060021
:020000040000fa
:10092c000010000016000000800000000000000015
:020000040000fa
:02000004000af0
:04afe000cfff00009f
:020000040000fa
:02000004000af0
:04afe400ffff00006b
:020000040000fa
:02000004000af0
:04afe800ffff000067
:020000040000fa
:02000004000af0
:04afec009bff0000c7
:020000040000fa
:02000004000af0
:04aff000ffff00005f
:020000040000fa
:02000004000af0
:04aff400cfff00008b
:00000001FF
